{
  "_format": "hh-sol-artifact-1",
  "contractName": "Conclave",
  "sourceName": "contracts/Conclave.sol",
  "abi": [
    {
      "inputs": [],
      "stateMutability": "nonpayable",
      "type": "constructor"
    },
    {
      "anonymous": false,
      "inputs": [
        {
          "indexed": true,
          "internalType": "address",
          "name": "owner",
          "type": "address"
        },
        {
          "indexed": true,
          "internalType": "address",
          "name": "approved",
          "type": "address"
        },
        {
          "indexed": true,
          "internalType": "uint256",
          "name": "tokenId",
          "type": "uint256"
        }
      ],
      "name": "Approval",
      "type": "event"
    },
    {
      "anonymous": false,
      "inputs": [
        {
          "indexed": true,
          "internalType": "address",
          "name": "owner",
          "type": "address"
        },
        {
          "indexed": true,
          "internalType": "address",
          "name": "operator",
          "type": "address"
        },
        {
          "indexed": false,
          "internalType": "bool",
          "name": "approved",
          "type": "bool"
        }
      ],
      "name": "ApprovalForAll",
      "type": "event"
    },
    {
      "anonymous": false,
      "inputs": [
        {
          "indexed": false,
          "internalType": "uint256",
          "name": "_fromTokenId",
          "type": "uint256"
        },
        {
          "indexed": false,
          "internalType": "uint256",
          "name": "_toTokenId",
          "type": "uint256"
        }
      ],
      "name": "BatchMetadataUpdate",
      "type": "event"
    },
    {
      "anonymous": false,
      "inputs": [
        {
          "indexed": false,
          "internalType": "uint256",
          "name": "_tokenId",
          "type": "uint256"
        }
      ],
      "name": "MetadataUpdate",
      "type": "event"
    },
    {
      "anonymous": false,
      "inputs": [
        {
          "indexed": true,
          "internalType": "address",
          "name": "from",
          "type": "address"
        },
        {
          "indexed": true,
          "internalType": "address",
          "name": "to",
          "type": "address"
        },
        {
          "indexed": true,
          "internalType": "uint256",
          "name": "tokenId",
          "type": "uint256"
        }
      ],
      "name": "Transfer",
      "type": "event"
    },
    {
      "inputs": [
        {
          "internalType": "address",
          "name": "to",
          "type": "address"
        },
        {
          "internalType": "uint256",
          "name": "tokenId",
          "type": "uint256"
        }
      ],
      "name": "approve",
      "outputs": [],
      "stateMutability": "nonpayable",
      "type": "function"
    },
    {
      "inputs": [
        {
          "internalType": "address",
          "name": "owner",
          "type": "address"
        }
      ],
      "name": "balanceOf",
      "outputs": [
        {
          "internalType": "uint256",
          "name": "",
          "type": "uint256"
        }
      ],
      "stateMutability": "view",
      "type": "function"
    },
    {
      "inputs": [
        {
          "internalType": "string",
          "name": "tokenURI",
          "type": "string"
        },
        {
          "internalType": "uint256",
          "name": "price",
          "type": "uint256"
        }
      ],
      "name": "createToken",
      "outputs": [
        {
          "internalType": "uint256",
          "name": "",
          "type": "uint256"
        }
      ],
      "stateMutability": "payable",
      "type": "function"
    },
    {
      "inputs": [
        {
          "internalType": "uint256",
          "name": "tokenId",
          "type": "uint256"
        }
      ],
      "name": "executeSale",
      "outputs": [],
      "stateMutability": "payable",
      "type": "function"
    },
    {
      "inputs": [],
      "name": "getAllNFTs",
      "outputs": [
        {
          "components": [
            {
              "internalType": "uint256",
              "name": "tokenId",
              "type": "uint256"
            },
            {
              "internalType": "address payable",
              "name": "owner",
              "type": "address"
            },
            {
              "internalType": "address payable",
              "name": "seller",
              "type": "address"
            },
            {
              "internalType": "uint256",
              "name": "price",
              "type": "uint256"
            },
            {
              "internalType": "bool",
              "name": "currentlyListed",
              "type": "bool"
            }
          ],
          "internalType": "struct Conclave.ListedToken[]",
          "name": "",
          "type": "tuple[]"
        }
      ],
      "stateMutability": "view",
      "type": "function"
    },
    {
      "inputs": [
        {
          "internalType": "uint256",
          "name": "tokenId",
          "type": "uint256"
        }
      ],
      "name": "getApproved",
      "outputs": [
        {
          "internalType": "address",
          "name": "",
          "type": "address"
        }
      ],
      "stateMutability": "view",
      "type": "function"
    },
    {
      "inputs": [],
      "name": "getCurrentToken",
      "outputs": [
        {
          "internalType": "uint256",
          "name": "",
          "type": "uint256"
        }
      ],
      "stateMutability": "view",
      "type": "function"
    },
    {
      "inputs": [],
      "name": "getLatestIdToListedToken",
      "outputs": [
        {
          "components": [
            {
              "internalType": "uint256",
              "name": "tokenId",
              "type": "uint256"
            },
            {
              "internalType": "address payable",
              "name": "owner",
              "type": "address"
            },
            {
              "internalType": "address payable",
              "name": "seller",
              "type": "address"
            },
            {
              "internalType": "uint256",
              "name": "price",
              "type": "uint256"
            },
            {
              "internalType": "bool",
              "name": "currentlyListed",
              "type": "bool"
            }
          ],
          "internalType": "struct Conclave.ListedToken",
          "name": "",
          "type": "tuple"
        }
      ],
      "stateMutability": "view",
      "type": "function"
    },
    {
      "inputs": [],
      "name": "getListPrice",
      "outputs": [
        {
          "internalType": "uint256",
          "name": "",
          "type": "uint256"
        }
      ],
      "stateMutability": "view",
      "type": "function"
    },
    {
      "inputs": [
        {
          "internalType": "uint256",
          "name": "tokenId",
          "type": "uint256"
        }
      ],
      "name": "getListedForTokenId",
      "outputs": [
        {
          "components": [
            {
              "internalType": "uint256",
              "name": "tokenId",
              "type": "uint256"
            },
            {
              "internalType": "address payable",
              "name": "owner",
              "type": "address"
            },
            {
              "internalType": "address payable",
              "name": "seller",
              "type": "address"
            },
            {
              "internalType": "uint256",
              "name": "price",
              "type": "uint256"
            },
            {
              "internalType": "bool",
              "name": "currentlyListed",
              "type": "bool"
            }
          ],
          "internalType": "struct Conclave.ListedToken",
          "name": "",
          "type": "tuple"
        }
      ],
      "stateMutability": "view",
      "type": "function"
    },
    {
      "inputs": [],
      "name": "getMyNFTs",
      "outputs": [
        {
          "components": [
            {
              "internalType": "uint256",
              "name": "tokenId",
              "type": "uint256"
            },
            {
              "internalType": "address payable",
              "name": "owner",
              "type": "address"
            },
            {
              "internalType": "address payable",
              "name": "seller",
              "type": "address"
            },
            {
              "internalType": "uint256",
              "name": "price",
              "type": "uint256"
            },
            {
              "internalType": "bool",
              "name": "currentlyListed",
              "type": "bool"
            }
          ],
          "internalType": "struct Conclave.ListedToken[]",
          "name": "",
          "type": "tuple[]"
        }
      ],
      "stateMutability": "view",
      "type": "function"
    },
    {
      "inputs": [
        {
          "internalType": "address",
          "name": "owner",
          "type": "address"
        },
        {
          "internalType": "address",
          "name": "operator",
          "type": "address"
        }
      ],
      "name": "isApprovedForAll",
      "outputs": [
        {
          "internalType": "bool",
          "name": "",
          "type": "bool"
        }
      ],
      "stateMutability": "view",
      "type": "function"
    },
    {
      "inputs": [],
      "name": "listPrice",
      "outputs": [
        {
          "internalType": "uint256",
          "name": "",
          "type": "uint256"
        }
      ],
      "stateMutability": "view",
      "type": "function"
    },
    {
      "inputs": [],
      "name": "name",
      "outputs": [
        {
          "internalType": "string",
          "name": "",
          "type": "string"
        }
      ],
      "stateMutability": "view",
      "type": "function"
    },
    {
      "inputs": [
        {
          "internalType": "uint256",
          "name": "tokenId",
          "type": "uint256"
        }
      ],
      "name": "ownerOf",
      "outputs": [
        {
          "internalType": "address",
          "name": "",
          "type": "address"
        }
      ],
      "stateMutability": "view",
      "type": "function"
    },
    {
      "inputs": [
        {
          "internalType": "address",
          "name": "from",
          "type": "address"
        },
        {
          "internalType": "address",
          "name": "to",
          "type": "address"
        },
        {
          "internalType": "uint256",
          "name": "tokenId",
          "type": "uint256"
        }
      ],
      "name": "safeTransferFrom",
      "outputs": [],
      "stateMutability": "nonpayable",
      "type": "function"
    },
    {
      "inputs": [
        {
          "internalType": "address",
          "name": "from",
          "type": "address"
        },
        {
          "internalType": "address",
          "name": "to",
          "type": "address"
        },
        {
          "internalType": "uint256",
          "name": "tokenId",
          "type": "uint256"
        },
        {
          "internalType": "bytes",
          "name": "data",
          "type": "bytes"
        }
      ],
      "name": "safeTransferFrom",
      "outputs": [],
      "stateMutability": "nonpayable",
      "type": "function"
    },
    {
      "inputs": [
        {
          "internalType": "address",
          "name": "operator",
          "type": "address"
        },
        {
          "internalType": "bool",
          "name": "approved",
          "type": "bool"
        }
      ],
      "name": "setApprovalForAll",
      "outputs": [],
      "stateMutability": "nonpayable",
      "type": "function"
    },
    {
      "inputs": [
        {
          "internalType": "bytes4",
          "name": "interfaceId",
          "type": "bytes4"
        }
      ],
      "name": "supportsInterface",
      "outputs": [
        {
          "internalType": "bool",
          "name": "",
          "type": "bool"
        }
      ],
      "stateMutability": "view",
      "type": "function"
    },
    {
      "inputs": [],
      "name": "symbol",
      "outputs": [
        {
          "internalType": "string",
          "name": "",
          "type": "string"
        }
      ],
      "stateMutability": "view",
      "type": "function"
    },
    {
      "inputs": [
        {
          "internalType": "uint256",
          "name": "tokenId",
          "type": "uint256"
        }
      ],
      "name": "tokenURI",
      "outputs": [
        {
          "internalType": "string",
          "name": "",
          "type": "string"
        }
      ],
      "stateMutability": "view",
      "type": "function"
    },
    {
      "inputs": [
        {
          "internalType": "address",
          "name": "from",
          "type": "address"
        },
        {
          "internalType": "address",
          "name": "to",
          "type": "address"
        },
        {
          "internalType": "uint256",
          "name": "tokenId",
          "type": "uint256"
        }
      ],
      "name": "transferFrom",
      "outputs": [],
      "stateMutability": "nonpayable",
      "type": "function"
    },
    {
      "inputs": [
        {
          "internalType": "uint256",
          "name": "_listPrice",
          "type": "uint256"
        }
      ],
      "name": "updatePrice",
      "outputs": [],
      "stateMutability": "payable",
      "type": "function"
    }
  ],
  "bytecode": "0x60806040526000600855662386f26fc10000600a553480156200002157600080fd5b506040805180820182526008815267436f6e636c61766560c01b602080830191825283518085019094526003845262434e4360e81b9084015281519192916200006d916000916200009e565b508051620000839060019060208401906200009e565b5050600780546001600160a01b031916331790555062000181565b828054620000ac9062000144565b90600052602060002090601f016020900481019282620000d057600085556200011b565b82601f10620000eb57805160ff19168380011785556200011b565b828001600101855582156200011b579182015b828111156200011b578251825591602001919060010190620000fe565b50620001299291506200012d565b5090565b5b808211156200012957600081556001016200012e565b600181811c908216806200015957607f821691505b602082108114156200017b57634e487b7160e01b600052602260045260246000fd5b50919050565b6120dc80620001916000396000f3fe6080604052600436106101405760003560e01c806372b3b620116100b6578063b88d4fde1161006f578063b88d4fde14610368578063c87b56dd14610388578063d1a88ae5146103a8578063e0391b09146103bd578063e985e9c5146103d2578063ef2d17461461041b57600080fd5b806372b3b620146102cd5780638d6cc56d146102e057806395d89b41146102f357806398c3df16146103085780639b1225c414610335578063a22cb4651461034857600080fd5b806342842e0e1161010857806342842e0e14610216578063629cb2e4146102365780636352211e1461025857806368f1945f146102785780636eb588d91461029757806370a08231146102ad57600080fd5b806301ffc9a71461014557806306fdde031461017a578063081812fc1461019c578063095ea7b3146101d457806323b872dd146101f6575b600080fd5b34801561015157600080fd5b50610165610160366004611cf9565b610430565b60405190151581526020015b60405180910390f35b34801561018657600080fd5b5061018f61045b565b6040516101719190611ec5565b3480156101a857600080fd5b506101bc6101b7366004611d87565b6104ed565b6040516001600160a01b039091168152602001610171565b3480156101e057600080fd5b506101f46101ef366004611cd0565b610514565b005b34801561020257600080fd5b506101f4610211366004611be2565b61062f565b34801561022257600080fd5b506101f4610231366004611be2565b610660565b34801561024257600080fd5b5061024b61067b565b6040516101719190611e77565b34801561026457600080fd5b506101bc610273366004611d87565b6108b6565b34801561028457600080fd5b50600a545b604051908152602001610171565b3480156102a357600080fd5b50610289600a5481565b3480156102b957600080fd5b506102896102c8366004611b96565b610916565b6102896102db366004611d31565b61099c565b6101f46102ee366004611d87565b610a98565b3480156102ff57600080fd5b5061018f610b12565b34801561031457600080fd5b50610328610323366004611d87565b610b21565b6040516101719190611fbc565b6101f4610343366004611d87565b610b8b565b34801561035457600080fd5b506101f4610363366004611c96565b610cf2565b34801561037457600080fd5b506101f4610383366004611c1d565b610d01565b34801561039457600080fd5b5061018f6103a3366004611d87565b610d33565b3480156103b457600080fd5b50610328610e44565b3480156103c957600080fd5b5061024b610eb1565b3480156103de57600080fd5b506101656103ed366004611bb0565b6001600160a01b03918216600090815260056020908152604080832093909416825291909152205460ff1690565b34801561042757600080fd5b50600854610289565b60006001600160e01b03198216632483248360e11b1480610455575061045582610fef565b92915050565b60606000805461046a9061200e565b80601f01602080910402602001604051908101604052809291908181526020018280546104969061200e565b80156104e35780601f106104b8576101008083540402835291602001916104e3565b820191906000526020600020905b8154815290600101906020018083116104c657829003601f168201915b5050505050905090565b60006104f88261103f565b506000908152600460205260409020546001600160a01b031690565b600061051f826108b6565b9050806001600160a01b0316836001600160a01b031614156105925760405162461bcd60e51b815260206004820152602160248201527f4552433732313a20617070726f76616c20746f2063757272656e74206f776e656044820152603960f91b60648201526084015b60405180910390fd5b336001600160a01b03821614806105ae57506105ae81336103ed565b6106205760405162461bcd60e51b815260206004820152603d60248201527f4552433732313a20617070726f76652063616c6c6572206973206e6f7420746f60448201527f6b656e206f776e6572206f7220617070726f76656420666f7220616c6c0000006064820152608401610589565b61062a83836110a1565b505050565b610639338261110f565b6106555760405162461bcd60e51b815260040161058990611ed8565b61062a83838361118d565b61062a83838360405180602001604052806000815250610d01565b600854606090600080805b838110156107165733600b600061069e846001611fca565b81526020810191909152604001600020600101546001600160a01b031614806106f1575033600b60006106d2846001611fca565b81526020810191909152604001600020600201546001600160a01b0316145b1561070457610701600184611fca565b92505b8061070e81612049565b915050610686565b5060008267ffffffffffffffff81111561074057634e487b7160e01b600052604160045260246000fd5b60405190808252806020026020018201604052801561077957816020015b610766611a3d565b81526020019060019003908161075e5790505b50905060005b848110156108ad5733600b6000610797846001611fca565b81526020810191909152604001600020600101546001600160a01b031614806107ea575033600b60006107cb846001611fca565b81526020810191909152604001600020600201546001600160a01b0316145b1561089b5760006107fc826001611fca565b6000818152600b6020908152604091829020825160a0810184528154815260018201546001600160a01b039081169382019390935260028201549092169282019290925260038201546060820152600482015460ff16151560808201528551929350909185908790811061088057634e487b7160e01b600052603260045260246000fd5b6020908102919091010152610896600186611fca565b945050505b806108a581612049565b91505061077f565b50949350505050565b6000818152600260205260408120546001600160a01b0316806104555760405162461bcd60e51b8152602060048201526018602482015277115490cdcc8c4e881a5b9d985b1a59081d1bdad95b88125160421b6044820152606401610589565b60006001600160a01b0382166109805760405162461bcd60e51b815260206004820152602960248201527f4552433732313a2061646472657373207a65726f206973206e6f7420612076616044820152683634b21037bbb732b960b91b6064820152608401610589565b506001600160a01b031660009081526003602052604090205490565b6000600a543414610a085760405162461bcd60e51b815260206004820152603060248201527f4e6f7420656e6f75676820457468657220666f722074686520436f6e636c617660448201526f32903634b9ba34b73390383934b1b29760811b6064820152608401610589565b60008211610a585760405162461bcd60e51b815260206004820152601760248201527f5072696365206d75737420626520706f7369746976652e0000000000000000006044820152606401610589565b600160086000828254610a6b9190611fca565b9091555050600854610a7d33826112f1565b610a87818561130b565b610a9181846113dd565b9392505050565b6007546001600160a01b03163314610b0d5760405162461bcd60e51b815260206004820152603260248201527f4f6e6c7920436f6e636c617665206f776e6572732063616e20757064617465206044820152713a3432903634b9ba34b73390383934b1b29760711b6064820152608401610589565b600a55565b60606001805461046a9061200e565b610b29611a3d565b506000908152600b6020908152604091829020825160a0810184528154815260018201546001600160a01b03908116938201939093526002820154909216928201929092526003820154606082015260049091015460ff161515608082015290565b6000818152600b6020526040902060030154348114610c085760405162461bcd60e51b815260206004820152603360248201527f506c656173652073656e642074686520726571756972656420457468657220746044820152723790383ab931b430b9b2903a34329027232a1760691b6064820152608401610589565b6000828152600b602052604081206002810180546004909201805460ff191660019081179091556001600160a01b031983163317909155600980546001600160a01b03909316939192909190610c5f908490611fca565b90915550610c70905030338561118d565b610c7a3084610514565b600754600a546040516001600160a01b039092169181156108fc0291906000818181858888f19350505050158015610cb6573d6000803e3d6000fd5b506040516001600160a01b038216903480156108fc02916000818181858888f19350505050158015610cec573d6000803e3d6000fd5b50505050565b610cfd33838361147a565b5050565b610d0b338361110f565b610d275760405162461bcd60e51b815260040161058990611ed8565b610cec84848484611549565b6060610d3e8261103f565b60008281526006602052604081208054610d579061200e565b80601f0160208091040260200160405190810160405280929190818152602001828054610d839061200e565b8015610dd05780601f10610da557610100808354040283529160200191610dd0565b820191906000526020600020905b815481529060010190602001808311610db357829003601f168201915b505050505090506000610dee60408051602081019091526000815290565b9050805160001415610e01575092915050565b815115610e33578082604051602001610e1b929190611e0b565b60405160208183030381529060405292505050919050565b610e3c8461157c565b949350505050565b610e4c611a3d565b506008546000908152600b6020908152604091829020825160a0810184528154815260018201546001600160a01b03908116938201939093526002820154909216928201929092526003820154606082015260049091015460ff161515608082015290565b60085460609060008167ffffffffffffffff811115610ee057634e487b7160e01b600052604160045260246000fd5b604051908082528060200260200182016040528015610f1957816020015b610f06611a3d565b815260200190600190039081610efe5790505b5090506000805b83811015610fe6576000610f35826001611fca565b6000818152600b6020908152604091829020825160a0810184528154815260018201546001600160a01b039081169382019390935260028201549092169282019290925260038201546060820152600482015460ff161515608082015286519293509091869086908110610fb957634e487b7160e01b600052603260045260246000fd5b6020908102919091010152610fcf600185611fca565b935050508080610fde90612049565b915050610f20565b50909392505050565b60006001600160e01b031982166380ac58cd60e01b148061102057506001600160e01b03198216635b5e139f60e01b145b8061045557506301ffc9a760e01b6001600160e01b0319831614610455565b6000818152600260205260409020546001600160a01b031661109e5760405162461bcd60e51b8152602060048201526018602482015277115490cdcc8c4e881a5b9d985b1a59081d1bdad95b88125160421b6044820152606401610589565b50565b600081815260046020526040902080546001600160a01b0319166001600160a01b03841690811790915581906110d6826108b6565b6001600160a01b03167f8c5be1e5ebec7d5bd14f71427d1e84f3dd0314c0f7b2291e5b200ac8c7c3b92560405160405180910390a45050565b60008061111b836108b6565b9050806001600160a01b0316846001600160a01b0316148061116257506001600160a01b0380821660009081526005602090815260408083209388168352929052205460ff165b80610e3c5750836001600160a01b031661117b846104ed565b6001600160a01b031614949350505050565b826001600160a01b03166111a0826108b6565b6001600160a01b0316146111c65760405162461bcd60e51b815260040161058990611f77565b6001600160a01b0382166112285760405162461bcd60e51b8152602060048201526024808201527f4552433732313a207472616e7366657220746f20746865207a65726f206164646044820152637265737360e01b6064820152608401610589565b826001600160a01b031661123b826108b6565b6001600160a01b0316146112615760405162461bcd60e51b815260040161058990611f77565b600081815260046020908152604080832080546001600160a01b03199081169091556001600160a01b0387811680865260038552838620805460001901905590871680865283862080546001019055868652600290945282852080549092168417909155905184937fddf252ad1be2c89b69c2b068fc378daa952ba7f163c4a11628f55a4df523b3ef91a4505050565b610cfd8282604051806020016040528060008152506115ef565b6000828152600260205260409020546001600160a01b03166113865760405162461bcd60e51b815260206004820152602e60248201527f45524337323155524953746f726167653a2055524920736574206f66206e6f6e60448201526d32bc34b9ba32b73a103a37b5b2b760911b6064820152608401610589565b600082815260066020908152604090912082516113a592840190611a6b565b506040518281527ff8e1a15aba9398e019f0b49df1a4fde98ee17ae345cb5f6b5e2c27f5033e8ce79060200160405180910390a15050565b6040805160a081018252838152306020808301828152338486018181526060860188815260016080880181815260008c8152600b9097529890952096518755925193860180546001600160a01b039586166001600160a01b03199182161790915590516002870180549190951691161790925551600384015592516004909201805492151560ff1990931692909217909155610cfd91908461118d565b816001600160a01b0316836001600160a01b031614156114dc5760405162461bcd60e51b815260206004820152601960248201527f4552433732313a20617070726f766520746f2063616c6c6572000000000000006044820152606401610589565b6001600160a01b03838116600081815260056020908152604080832094871680845294825291829020805460ff191686151590811790915591519182527f17307eab39ab6107e8899845ad3d59bd9653f200f220920489ca2b5937696c31910160405180910390a3505050565b61155484848461118d565b61156084848484611622565b610cec5760405162461bcd60e51b815260040161058990611f25565b60606115878261103f565b600061159e60408051602081019091526000815290565b905060008151116115be5760405180602001604052806000815250610a91565b806115c88461172f565b6040516020016115d9929190611e0b565b6040516020818303038152906040529392505050565b6115f983836117da565b6116066000848484611622565b61062a5760405162461bcd60e51b815260040161058990611f25565b60006001600160a01b0384163b1561172457604051630a85bd0160e11b81526001600160a01b0385169063150b7a0290611666903390899088908890600401611e3a565b602060405180830381600087803b15801561168057600080fd5b505af19250505080156116b0575060408051601f3d908101601f191682019092526116ad91810190611d15565b60015b61170a573d8080156116de576040519150601f19603f3d011682016040523d82523d6000602084013e6116e3565b606091505b5080516117025760405162461bcd60e51b815260040161058990611f25565b805181602001fd5b6001600160e01b031916630a85bd0160e11b149050610e3c565b506001949350505050565b6060600061173c83611965565b600101905060008167ffffffffffffffff81111561176a57634e487b7160e01b600052604160045260246000fd5b6040519080825280601f01601f191660200182016040528015611794576020820181803683370190505b5090508181016020015b600019016f181899199a1a9b1b9c1cb0b131b232b360811b600a86061a8153600a85049450846117cd576117d2565b61179e565b509392505050565b6001600160a01b0382166118305760405162461bcd60e51b815260206004820181905260248201527f4552433732313a206d696e7420746f20746865207a65726f20616464726573736044820152606401610589565b6000818152600260205260409020546001600160a01b0316156118955760405162461bcd60e51b815260206004820152601c60248201527f4552433732313a20746f6b656e20616c7265616479206d696e746564000000006044820152606401610589565b6000818152600260205260409020546001600160a01b0316156118fa5760405162461bcd60e51b815260206004820152601c60248201527f4552433732313a20746f6b656e20616c7265616479206d696e746564000000006044820152606401610589565b6001600160a01b038216600081815260036020908152604080832080546001019055848352600290915280822080546001600160a01b0319168417905551839291907fddf252ad1be2c89b69c2b068fc378daa952ba7f163c4a11628f55a4df523b3ef908290a45050565b60008072184f03e93ff9f4daa797ed6e38ed64bf6a1f0160401b83106119a45772184f03e93ff9f4daa797ed6e38ed64bf6a1f0160401b830492506040015b6d04ee2d6d415b85acef810000000083106119d0576d04ee2d6d415b85acef8100000000830492506020015b662386f26fc1000083106119ee57662386f26fc10000830492506010015b6305f5e1008310611a06576305f5e100830492506008015b6127108310611a1a57612710830492506004015b60648310611a2c576064830492506002015b600a83106104555760010192915050565b6040805160a08101825260008082526020820181905291810182905260608101829052608081019190915290565b828054611a779061200e565b90600052602060002090601f016020900481019282611a995760008555611adf565b82601f10611ab257805160ff1916838001178555611adf565b82800160010185558215611adf579182015b82811115611adf578251825591602001919060010190611ac4565b50611aeb929150611aef565b5090565b5b80821115611aeb5760008155600101611af0565b600067ffffffffffffffff80841115611b1f57611b1f61207a565b604051601f8501601f19908116603f01168101908282118183101715611b4757611b4761207a565b81604052809350858152868686011115611b6057600080fd5b858560208301376000602087830101525050509392505050565b80356001600160a01b0381168114611b9157600080fd5b919050565b600060208284031215611ba7578081fd5b610a9182611b7a565b60008060408385031215611bc2578081fd5b611bcb83611b7a565b9150611bd960208401611b7a565b90509250929050565b600080600060608486031215611bf6578081fd5b611bff84611b7a565b9250611c0d60208501611b7a565b9150604084013590509250925092565b60008060008060808587031215611c32578081fd5b611c3b85611b7a565b9350611c4960208601611b7a565b925060408501359150606085013567ffffffffffffffff811115611c6b578182fd5b8501601f81018713611c7b578182fd5b611c8a87823560208401611b04565b91505092959194509250565b60008060408385031215611ca8578182fd5b611cb183611b7a565b915060208301358015158114611cc5578182fd5b809150509250929050565b60008060408385031215611ce2578182fd5b611ceb83611b7a565b946020939093013593505050565b600060208284031215611d0a578081fd5b8135610a9181612090565b600060208284031215611d26578081fd5b8151610a9181612090565b60008060408385031215611d43578182fd5b823567ffffffffffffffff811115611d59578283fd5b8301601f81018513611d69578283fd5b611d7885823560208401611b04565b95602094909401359450505050565b600060208284031215611d98578081fd5b5035919050565b60008151808452611db7816020860160208601611fe2565b601f01601f19169290920160200192915050565b805182526020808201516001600160a01b039081169184019190915260408083015190911690830152606080820151908301526080908101511515910152565b60008351611e1d818460208801611fe2565b835190830190611e31818360208801611fe2565b01949350505050565b6001600160a01b0385811682528416602082015260408101839052608060608201819052600090611e6d90830184611d9f565b9695505050505050565b6020808252825182820181905260009190848201906040850190845b81811015611eb957611ea6838551611dcb565b9284019260a09290920191600101611e93565b50909695505050505050565b602081526000610a916020830184611d9f565b6020808252602d908201527f4552433732313a2063616c6c6572206973206e6f7420746f6b656e206f776e6560408201526c1c881bdc88185c1c1c9bdd9959609a1b606082015260800190565b60208082526032908201527f4552433732313a207472616e7366657220746f206e6f6e20455243373231526560408201527131b2b4bb32b91034b6b83632b6b2b73a32b960711b606082015260800190565b60208082526025908201527f4552433732313a207472616e736665722066726f6d20696e636f72726563742060408201526437bbb732b960d91b606082015260800190565b60a081016104558284611dcb565b60008219821115611fdd57611fdd612064565b500190565b60005b83811015611ffd578181015183820152602001611fe5565b83811115610cec5750506000910152565b600181811c9082168061202257607f821691505b6020821081141561204357634e487b7160e01b600052602260045260246000fd5b50919050565b600060001982141561205d5761205d612064565b5060010190565b634e487b7160e01b600052601160045260246000fd5b634e487b7160e01b600052604160045260246000fd5b6001600160e01b03198116811461109e57600080fdfea26469706673582212204a4e7e6172b3ecada0001c640a4f34a6b7ec346c9a15a3254fc9c74e11ffcf4a64736f6c63430008040033",
  "linkReferences": {},
  "deployedLinkReferences": {}
}